:100000000C9434000C9451000C9451000C94510049
:100010000C9451000C9451000C9451000C9451001C
:100020000C9451000C9451000C9451000C9451000C
:100030000C9451000C9451000C9451000C945100FC
:100040000C9451000C9451000C9451000C945100EC
:100050000C9451000C9451000C9451000C945100DC
:100060000C9451000C94510011241FBECFEFD8E026
:10007000DEBFCDBF16E0A0E0B1E0EAE1F2E002C0F1
:1000800005900D92A233B107D9F726E0A2E3B6E0BE
:1000900001C01D92AA36B207E1F70E94D6000C9467
:1000A0000B010C9400000F931F93CF93DF939C01DF
:1000B000DC01989661E070E0E1E0F1E050E040E0C2
:1000C0009191E901C40FD51F433070F588818130CB
:1000D000E1F48BB1EB0101C0CC0F9A95EAF78C2BC0
:1000E0008BB94F5F5F4F4830510551F78FE99FE063
:1000F0000197F1F700C00000285F3F4FA217B30738
:10010000D9F632E041E050E03BC01BB1CF0101978E
:10011000EC018881EB0102C0CC0FDD1F8A95E2F76C
:10012000CE0180958123DCCF8B0102C0000F111F0F
:100130009A95E2F7C801C88195B1C13019F4892BAD
:1001400085B9CFCF80958923FBCF2330E8F46BB1FD
:100150008081DA0102C0AA0FBB1F8A95E2F7CD01A8
:10016000809586238BB92F5F3196283071F78FE900
:100170009FE00197F1F700C00000313091F031E0CD
:10018000E1E0F1E020E0E1CF65B18081EA0102C069
:10019000CC0FDD1F8A95E2F7CE018095862385B9C5
:1001A000E2CFDF91CF911F910F91089580EE8AB930
:1001B0008FE184B989E294E00E94530089ED93E0D5
:1001C0000E94530081E094E00E94530089E096E091
:1001D0000E94530082E496E00E94530082E496E07D
:1001E0000E94530089E893E00E94530089ED93E058
:1001F0000E94530089E992E00E94530089E096E052
:100200000E94530082E496E00E94530082E496E04C
:0A0210000E945300CFCFF894FFCFF7
:10021A0005050607000102030400010100000001B0
:10022A0000010000010000000101000001000000BF
:10023A0001010000010000000100010101010101AA
:10024A00000001010001010100010000010000009D
:10025A00010100000100000001010000010000008E
:10026A00010001010001010100010000000000007D
:10027A00010100000000000100010000000001006F
:10028A00000100000001000000010101010000005E
:10029A00000001010101010100010000010000004C
:1002AA00010100000100000001010000010000003E
:1002BA00010001000001010100010101010000002B
:1002CA00010100000100000001010000010000001E
:1002DA00010100000100000001010000000101010C
:1002EA000000000000010000000000000101000001
:1002FA0000000001000100000000010000010000F0
:10030A0000010101010101010101000000000000DA
:10031A0001010000010000000101000001000000CD
:10032A0001010000010000000100010100010101BA
:10033A0000000100000000010101000000000100AE
:10034A00010100000001000001010000010000009D
:10035A00010001010000000001000001000000008E
:10036A00000001000000000000010101010101017B
:10037A000100000000000000000000000000000072
:10038A00000001010101010100010000000000005C
:10039A00010100000000000001010000000000004F
:1003AA000100010101010101000100000000010139
:1003BA00010100000101000001010000010000002C
:1003CA00010100010100000001010100000000001C
:1003DA00010101010000000000000000010000000E
:1003EA0000000000000101010100000001000000FE
:1003FA0000010101000000000001010101010100EA
:10040A0000000000000000010000000000000000E1
:10041A0001000000000000010001010101010100CA
:10042A0000010101010101010000000000000000BB
:10043A0001000000000000000100000000000000B0
:10044A000101010101010101000100000000000099
:10045A00000100000000000000010101010101018A
:10046A00010100000000000000010000000000007F
:10047A00000001010000000001010000010000006D
:10048A00010100000100000001010000010000005C
:10049A000101000000010101000101010101010146
:1004AA00010100000101000000010000010001003B
:1004BA00000100000100000100000101000000002D
:1004CA000101010101010101010100000100000017
:1004DA00000100000100000000010000010000000E
:1004EA0000000101000000000000010101010101FA
:1004FA0000010000000000000101000000000000EF
:10050A0001010000000000000100010101010101D8
:10051A0000010101010101010100010000000000C8
:10052A0000000001000000000000000001000000BF
:10053A0000010101010100000001010101010101A5
:10054A00010100000000000000000101010000009C
:10055A000001000000000000000101010101010189
:10056A000101010101010101010000000000000078
:10057A00010000000000000001000000000000006F
:10058A000100000000000000010101010101010158
:10059A00010000000101000000000001000001004C
:1005AA00000001000000000100010000000000003E
:1005BA00010000000000000100000000000000002F
:1005CA000101000000000000010101010101010117
:1005DA000001000000000000000000000000000010
:1005EA0000010000000000000101010101010101F8
:1005FA0001010000000000000100000000000000EE
:10060A0000010101010101010100000001000000D7
:10061A0000000000010000000000000001000000CE
:10062A0000010101010101010100010101010101B2
:10063A0000010000000000000101000000010000AC
:10064A000101000000010000010100000001010198
:10065A000101010101010101010100000100000085
:10066A00000100000100000000010000010000007C
:10067A000001000001000000000101010101010167
:10068A00010100000100000001010000010000005A
:10069A00010100000100000001010000010000004A
:1006AA000101010101010101010100000000000036
:1006BA00010100000000000001010000000000002C
:1006CA000100010101010101000001010101010113
:1006DA00000100000000000001010000000000000D
:1006EA0001010000000000000100010000000001FB
:1006FA0000010101010101010101000001000000E6
:10070A0001010000010000000101000001000000D9
:10071A0001000101000101010000010101010101C3
:10072A0001010000000100000001000000010000BA
:10073A0000010000000100000000010101010101A7
:02074A000100AC
:00000001FF
